:100000000C949D050C9400000C9400000C940000CE
:100010000C9400000C9400000C9400000C94000060
:100020000C9400000C9400000C94C8040C94000084
:100030000C9400000C9400000C9400000C94000040
:100040000C9400000C9400000C9400000C94000030
:040050000C9400000C
:100B3A00BFE5BDBFB8E0BEBF0E9450062F923F92EC
:100B4A004F925F92BFEFB4BBD5DDB1E02B2E38DDFB
:100B5A00BCE02B2E35DDB0E64B2EB0E05B2EB7E0C5
:100B6A003B2EB1E02B2EE5DCBCE74B2EB0E05B2E32
:100B7A00B6E03B2EB2E02B2EDCDC29E01EE105EECE
:100B8A000A95F1F71A95E1F72A95D1F70000B1E035
:100B9A002B2E16DDBCE64B2EB0E05B2EB2E03B2ED0
:100BAA00B1E02B2EC6DCB5EB4B2EB0E05B2EB4E0E9
:100BBA003B2EB2E02B2EBDDC29E01EE105EE0A95A4
:100BCA00F1F71A95E1F72A95D1F7000060DD5ADDB1
:100BDA00BFB7B068BFBFB8EBBABBB8EBB7BBB1E041
:100BEA002B2EEEDC44DC0091B3001091B40020E01F
:100BFA0017FD2FEF322F9FDE40E050E060E270E4F5
:100C0A0089DCA801B90100E010E028EC32E489DEB1
:100C1A004BDDB6EC4B2EB0E05B2E1801C8DBB6EC10
:100C2A004B2EB0E05B2EB9E03B2EB2E02B2E81DCDE
:040C3A00D9CFFFCF40
:1006FE00B0913500BD7FB0933500B0913500BE7F0F
:10070E00B0933500B0913500BF77B0933500B091FE
:10071E003500BF7BB0933500B0913500BF7DB093EF
:10072E003500B0913500BF7EB0933500B0913400E6
:10073E00B460B0933400B0913400B160B093340023
:10074E00B0913400B061B0933400B0913400B06217
:10075E00B0933400B0913400B064B0933400B091D3
:10076E003400B068B0933400B6DDB5DDB4DDB091C1
:10077E003500B062B0933500B0913500B061B093E2
:10078E003500B0913500B260B093350035DDB091D3
:10079E003500BD7FB09335009EDDB0913500B2605F
:1007AE00B093350029DDB0913500BD7FB093350093
:1007BE0092DDB0913500B260B09335001DDDB09181
:1007CE003500BD7FB093350086DDB0913500BF7E1C
:1007DE00B0933500B0913500B260B09335000CDDAA
:1007EE00B0913500BD7FB093350075DDB091350009
:1007FE00B260B093350000DDB0913500BD7FB0938F
:10080E003500B0913500BF7DB0933500B091350005
:10081E00B068B0933500B0913500B260B09335003A
:10082E00EBDCB0913500BD7FB093350054DDB09157
:10083E003500BF77B0933500B0913500B061B093FD
:10084E003500B0913500B260B0933500D5DCB09173
:10085E003500BD7FB0933500B0913500BF7EB093AB
:10086E003500B0913500B260B0933500C5DCB09163
:10087E003500BD7FB09335002EDDB0913500B260EE
:10088E00B0933500B9DCB0913500BD7FB093350023
:10089E00B0913500B061B0933500B0913500B260C3
:1008AE00B0933500A9DCB0913500BD7FB093350013
:1008BE0012DDB0913500BF7EB0933500B09135009A
:1008CE00B260B093350098DCB0913500BD7FB09327
:1008DE003500B0913500B068B0933500B091350059
:1008EE00B064B0933500B0913500B062B09335006E
:1008FE00B0913500B061B0933500B0913500B26063
:10090E00B093350079DCB0913500BD7FB0933500E2
:0E091E00E2DCB091C500B160B093C500089551
:1002E4001AE303E20A95F1F71A95E1F7000000001A
:0202F40008956B
:0C02060002E00A95F1F7000000000895E6
:1005CA0027FAB0913500B7F9B093350026FAB09101
:1005DA003500B6F9B093350025FAB0913500B5F972
:1005EA00B093350024FAB0913500B4F9B0933500D0
:1005FA00B091C50000903500E894B0FF689400F807
:10060A0000923500B0913500B260B0933500F6DD46
:10061A00B0913500BD7FB093350023FAB091350013
:10062A00B7F9B093350022FAB0913500B6F9B09314
:10063A00350021FAB0913500B5F9B093350020FAAA
:10064A00B0913500B4F9B0933500B091C50000906F
:10065A003500E894B0FF689400F800923500B09134
:10066A003500B260B0933500C9DDB0913500BD7F69
:10067A00B0933500B091C500B0FF02C02EDE01C0B4
:04068A00B8DD08953A
:0A01FC0005E80A95F1F700000895E8
:10053C002F920FC0B0E82B2E19C0B0EC2B2E16C08A
:10054C00B4E92B2E13C0B4ED2B2E10C0B0E82B2E1B
:10055C000DC0B1E02B1671F3B2E02B1671F3B3E0C2
:10056C002B1671F3B4E02B1671F3F0CF032D015061
:10057C00020D202E202E23D0B091C500BE7FB0934B
:10058C00C50010E0E12FF0E0E40DF51D0081002323
:10059C0079F0E12FF0E0E40DF51D00811F932F920F
:1005AC00202EA3DE2F901F91012F0F5F102FEACF6B
:0E05BC00B091C500B160B093C5002F900895B6
:1002F600B091C500BE7FB093C50064D1B091C50072
:08030600B160B093C500089539
:10069800B0E8BFBFBBE0B3BFB0E0B2BFBDE7BCBF0F
:0806A800B9B7B260B9BF0895B3
:0A068E00B0E4B7B9B7E8B6B90895B3
:100478002F923F924F925F9209B300FF0AC00091FA
:100488009600109197000F5F1F4F009396001093EE
:1004980097002CC0B5E84B2EB0E05B2EB1E03B2EA8
:1004A800B1E02B2E47D0B8EA4B2EB0E05B2EB1E07E
:1004B8003B2EB2E02B2E3ED029C0B8E94B2EB0E03F
:1004C8005B2EB1E03B2EB1E02B2E34D0B5E64B2E9F
:1004D800B0E05B2EB1E03B2EB2E02B2E2BD0B1E08A
:1004E800B0939600B0E0B093970010C000919600CA
:1004F80010919700103009F4013061F200919600D4
:1005080010919700103009F40230B9F25F904F90C3
:060518003F902F900895B2
:1003B800CF93DF93CDB7DEB72497CDBFDEBF2196AD
:1003C8002F923F92B0E0B883B9832A823B8200E043
:1003D80010E02016310654F4B1E0B883B0E0B983D8
:1003E80000E010E0021913090A831B832A803B806E
:1003F8008ADF66E070E0AB0100E010E00417150743
:1004080090F49A01240D351D8A0101501040F8011D
:10041800E40DF51D0081F90100838A0101501040A7
:10042800B801AB01E9CFF201B0E2B08308811981CC
:10043800B02FB12BA9F020E030E0F901E40DF51D53
:100448000081003229F489010F5F1F4F9801F5CF11
:10045800890101501040F801E40DF51DBDE2B0839B
:100468003F902F902396CDBFDEBFDF91CF910895A7
:0004780084
:10030E00CF93DF93CDB7DEB72297CDBFDEBF219659
:10031E0010E0153050F4E12FF0E0E40DF51DB0E2E1
:10032E00B083012F0F5F102FF4CFE12FF0E0E40D1B
:10033E00F51DB0E0B083012F0150302F032F10E0D8
:10034E00040D151D088319834AE050E08101B2DEC9
:10035E008D01202F205D08811981F80120834AE04C
:10036E0050E08101A7DE8C011801103009F4003035
:10037E0009F404C0032F0150302FE0CF2196CDBFDA
:08038E00DEBFDF91CF9108955D
:1000C200C801BA01AA1BBB1B51E107C0AA1FBB1F73
:1000D200A617B70710F0A61BB70B881F991F5A95D2
:0800E200A9F78095909508959F
:0A05320005900D920197E1F708957E
:10051E00042E152E262E372E75DE002E112E222E8F
:04052E00332E0895CB
:100212003F932F931F930F93002D112D222D332DDA
:100222003ADF09F44BC0E62ED52EC42EB32EA22EF1
:10023200912E802E0F911F912F913F912CDF61F112
:100242006E254C195D09403853073CF541387FEF64
:1002520057077CF180E27724632E522E412E302FF5
:10026200222711270027000F111F221F331F441CB2
:10027200551C661C771C28F0481859086A087B0828
:1002820004C0480C591C6A1C7B1C0AF001608A9548
:1002920051F74150504083DF16C00FEF102F2FE768
:1002A2003FE76623C9F3DEDEB9F3342D30E83425A7
:1002B200F3CF0027102F202F302FEECF0F900F906B
:0802C2000F900F90EACF0895A0
:10009800E6DF79F0632F6078220F331F432F5FE785
:1000A800451B55275040269530E8232B3327989435
:0A00B80003C044275527662708956A
:10006600002329F4112319F4222309F433230895D4
:000076008A
:1001A00062DF11F19F938F938EE790E0332351F03C
:1001B000369527951795079548175907B4F44F5F5B
:1001C0005F4FF4CF80959095019622239AF0000F0F
:1001D000111F221F481759071CF041505040F5CFFE
:1001E000002711272227332708C033270FEF102FAE
:0C01F0002FE7322F8F919F913EDF089582
:10007600F7DF39F041585F4F342F220F3695279519
:04008600362B089578
:10092C00042E152E262E372ED4DC002E112E222E20
:04093C00332E0895B9
:0602DE00689404DF08959E
:1000EA00CFDF09F441C0E62ED52EC42EB32EA22EA0
:1000FA00912E802E002D112D222D332DC1DF09F4D2
:10010A003DC0842F952F8C199D09B9F072F49095F2
:10011A00809501964C2D5D2D883180F53595279572
:10012A00179507950197D1F708C08831E8F4B59477
:10013A00A794979487940197D1F766272EF0080D14
:10014A00191D2A1D3B1D09C0801A910AA20AB30A69
:10015A00082D192D2A2D3B2D332312F476DF60E862
:10016A001AD001C083DF16C0002D112D222D332D88
:10017A00D6F774DFC1F340E83427F5CF082D192DDF
:10018A002A2D3B2D4C2D5D2D6E2D33235AF75DDF25
:06019A0060E8E8CF0895C3
:0E008A0006D021F0662309F0E0DF9894089577
:1000540000951095209530950F5F1F4F2F4F3F4F00
:020064000895FD
:06094000E894C3DC0895F9
:1002CA0047E16627552726F0332312F4BEDE60E89D
:0402DA0062DF089542
:1006B200F2DCF1F05523C2F04F31A8F44731C1F01A
:1006C20050F44195495E05C03595279517950795D4
:1006D2004A95D1F70DC04751000F111F221F331F3A
:1006E2004A95D1F705C03FE7232F132F032F03C0ED
:0806F200662309F0AEDC089557
:0206B0000895AB
:0206FC0008955F
:0206FA00089561
:0203B6000895A8
:0203A4000895BA
:0203A0000895BE
:02039E000895C0
:0203A2000895BC
:020396000895C8
:02039C000895C2
:02039A000895C4
:0203B4000895AA
:0203AC000895B2
:0203AA000895B4
:0203A8000895B6
:0203B2000895AC
:0203AE000895B0
:020398000895C6
:0203A6000895B8
:0203B0000895AE
:100CA000A0E6B0E0EEE3FCE081E690E00E9499026D
:020CB0000895A5
:100990000F931F932F933F93EF93FF93BF93BFB793
:1009A000BF932F922091B1003091B2000091B3001B
:1009B0001091B4002017310709F0AAC000919600E9
:1009C00010919700103009F4013059F40091AF00F4
:1009D0001091B0000F5F1F4F0093AF001093B00055
:1009E00012C00091960010919700103009F4023067
:1009F00051F40091AF001091B000015010400093ED
:100A0000AF001093B0005AC0B0E1BBBBB0E1B8BBBF
:100A1000B6E02B2E98DF1595079515950795009351
:100A2000B3001093B400009196001091970010301D
:100A300009F4023029F4B0E0B093AF00B093B000F5
:100A400061C0B0E2BBBBB0E2B8BBB6E02B2E7BDF2F
:100A500015950795159507950093B3001093B4006D
:100A600051C0B8E0BBBBB8E0B8BBB6E02B2E6BDF23
:100A700015950795159507950093B3001093B4004D
:100A800041C0B0E8BBBBB0E8B8BBB6E02B2E5BDF23
:100A900015950795159507950093B3001093B4002D
:100AA0000091960010919700103009F4013029F45C
:100AB000B0E0B093AF00B093B00024C00091AF009D
:100AC0001091B000103009F4013009F49DCF00916D
:100AD000AF001091B000103009F4023009F4B1CF2A
:100AE0000091AF001091B000103009F4033009F408
:100AF000B8CF0091AF001091B000103009F404306D
:100B000009F4BFCFB0E0B093B100B093B2000AC017
:100B10000091B1001091B2000F5F1F4F0093B10020
:100B20001093B2002F90BF91BFBFBF91FF91EF9183
:0A0B30003F912F911F910F9118952E
:1009460007B1007E07B9022907B9B6B1B064B6B9D6
:1009560006B106FF01C0FCCF04B10093C300B0E0AE
:10096600B093C40005B10093C100B0E0B093C200DB
:100976000091C1001091C200302F22270091C300C0
:0A0986001091C400022B132B0895FA
:050C3E00476F6F640028
:070C430053706565643A007F
:100C4A004920686F706520796F752077696C6C0030
:090C5A004576656E696E672100A4
:100C6300446972656374696F6E3A20526967687488
:010C73000080
:020C740001007D
:100C7600446972656374696F6E3A204C65667400E8
:070C860053706565643A003C
:020C8D00000065
:020C8F00000063
:020C91006300FE
:0C0C9300656E6A6F792074686973210037
:00000001FF
